{
  "contractName": "Milk",
  "abi": [
    {
      "inputs": [],
      "stateMutability": "nonpayable",
      "type": "constructor"
    },
    {
      "anonymous": false,
      "inputs": [
        {
          "indexed": false,
          "internalType": "address",
          "name": "_buyer",
          "type": "address"
        },
        {
          "indexed": false,
          "internalType": "uint256",
          "name": "_id",
          "type": "uint256"
        }
      ],
      "name": "LogBuyProduct",
      "type": "event"
    },
    {
      "anonymous": false,
      "inputs": [
        {
          "indexed": false,
          "internalType": "address",
          "name": "_manager",
          "type": "address"
        },
        {
          "indexed": false,
          "internalType": "uint256",
          "name": "_id",
          "type": "uint256"
        }
      ],
      "name": "LogCancelProduct",
      "type": "event"
    },
    {
      "anonymous": false,
      "inputs": [
        {
          "indexed": false,
          "internalType": "address",
          "name": "_buyer",
          "type": "address"
        },
        {
          "indexed": false,
          "internalType": "uint256",
          "name": "_id",
          "type": "uint256"
        }
      ],
      "name": "LogDecideCancel",
      "type": "event"
    },
    {
      "anonymous": false,
      "inputs": [
        {
          "indexed": false,
          "internalType": "address",
          "name": "_buyer",
          "type": "address"
        },
        {
          "indexed": false,
          "internalType": "uint256",
          "name": "_id",
          "type": "uint256"
        }
      ],
      "name": "LogDecidePayment",
      "type": "event"
    },
    {
      "anonymous": false,
      "inputs": [
        {
          "indexed": false,
          "internalType": "address",
          "name": "_manager",
          "type": "address"
        },
        {
          "indexed": false,
          "internalType": "uint256",
          "name": "_id",
          "type": "uint256"
        }
      ],
      "name": "LogPaymentProduct",
      "type": "event"
    },
    {
      "inputs": [
        {
          "internalType": "uint256",
          "name": "",
          "type": "uint256"
        }
      ],
      "name": "buyerInfo",
      "outputs": [
        {
          "internalType": "address",
          "name": "buyerAddress",
          "type": "address"
        },
        {
          "internalType": "bytes32",
          "name": "user_name",
          "type": "bytes32"
        },
        {
          "internalType": "bytes32",
          "name": "user_nickname",
          "type": "bytes32"
        },
        {
          "internalType": "bytes32",
          "name": "user_email",
          "type": "bytes32"
        },
        {
          "internalType": "bytes32",
          "name": "user_address",
          "type": "bytes32"
        },
        {
          "internalType": "bytes32",
          "name": "user_milk",
          "type": "bytes32"
        }
      ],
      "stateMutability": "view",
      "type": "function",
      "constant": true
    },
    {
      "inputs": [
        {
          "internalType": "uint256",
          "name": "",
          "type": "uint256"
        }
      ],
      "name": "buyers",
      "outputs": [
        {
          "internalType": "address",
          "name": "",
          "type": "address"
        }
      ],
      "stateMutability": "view",
      "type": "function",
      "constant": true
    },
    {
      "inputs": [
        {
          "internalType": "uint256",
          "name": "",
          "type": "uint256"
        }
      ],
      "name": "decideCancelInfo",
      "outputs": [
        {
          "internalType": "address",
          "name": "buyerAddress",
          "type": "address"
        },
        {
          "internalType": "uint256",
          "name": "date",
          "type": "uint256"
        }
      ],
      "stateMutability": "view",
      "type": "function",
      "constant": true
    },
    {
      "inputs": [
        {
          "internalType": "uint256",
          "name": "",
          "type": "uint256"
        }
      ],
      "name": "decideCancels",
      "outputs": [
        {
          "internalType": "address",
          "name": "",
          "type": "address"
        }
      ],
      "stateMutability": "view",
      "type": "function",
      "constant": true
    },
    {
      "inputs": [
        {
          "internalType": "uint256",
          "name": "",
          "type": "uint256"
        }
      ],
      "name": "decidePaymentInfo",
      "outputs": [
        {
          "internalType": "address",
          "name": "buyerAddress",
          "type": "address"
        },
        {
          "internalType": "uint256",
          "name": "date",
          "type": "uint256"
        }
      ],
      "stateMutability": "view",
      "type": "function",
      "constant": true
    },
    {
      "inputs": [
        {
          "internalType": "uint256",
          "name": "",
          "type": "uint256"
        }
      ],
      "name": "decidePayments",
      "outputs": [
        {
          "internalType": "address",
          "name": "",
          "type": "address"
        }
      ],
      "stateMutability": "view",
      "type": "function",
      "constant": true
    },
    {
      "inputs": [
        {
          "internalType": "uint256",
          "name": "",
          "type": "uint256"
        }
      ],
      "name": "doCancelInfo",
      "outputs": [
        {
          "internalType": "address",
          "name": "managerAddress",
          "type": "address"
        },
        {
          "internalType": "uint256",
          "name": "date",
          "type": "uint256"
        }
      ],
      "stateMutability": "view",
      "type": "function",
      "constant": true
    },
    {
      "inputs": [
        {
          "internalType": "uint256",
          "name": "",
          "type": "uint256"
        }
      ],
      "name": "doCancels",
      "outputs": [
        {
          "internalType": "address",
          "name": "",
          "type": "address"
        }
      ],
      "stateMutability": "view",
      "type": "function",
      "constant": true
    },
    {
      "inputs": [
        {
          "internalType": "uint256",
          "name": "",
          "type": "uint256"
        }
      ],
      "name": "doPaymentInfo",
      "outputs": [
        {
          "internalType": "address",
          "name": "managerAddress",
          "type": "address"
        },
        {
          "internalType": "uint256",
          "name": "date",
          "type": "uint256"
        }
      ],
      "stateMutability": "view",
      "type": "function",
      "constant": true
    },
    {
      "inputs": [
        {
          "internalType": "uint256",
          "name": "",
          "type": "uint256"
        }
      ],
      "name": "doPayments",
      "outputs": [
        {
          "internalType": "address",
          "name": "",
          "type": "address"
        }
      ],
      "stateMutability": "view",
      "type": "function",
      "constant": true
    },
    {
      "inputs": [],
      "name": "owner",
      "outputs": [
        {
          "internalType": "address",
          "name": "",
          "type": "address"
        }
      ],
      "stateMutability": "view",
      "type": "function",
      "constant": true
    },
    {
      "inputs": [
        {
          "internalType": "uint256",
          "name": "",
          "type": "uint256"
        }
      ],
      "name": "sellerInfo",
      "outputs": [
        {
          "internalType": "address",
          "name": "sellerAddress",
          "type": "address"
        },
        {
          "internalType": "bytes32",
          "name": "user_name",
          "type": "bytes32"
        },
        {
          "internalType": "bytes32",
          "name": "user_nickname",
          "type": "bytes32"
        },
        {
          "internalType": "bytes32",
          "name": "user_email",
          "type": "bytes32"
        },
        {
          "internalType": "bytes32",
          "name": "user_address",
          "type": "bytes32"
        }
      ],
      "stateMutability": "view",
      "type": "function",
      "constant": true
    },
    {
      "inputs": [
        {
          "internalType": "uint256",
          "name": "",
          "type": "uint256"
        }
      ],
      "name": "sellers",
      "outputs": [
        {
          "internalType": "address",
          "name": "",
          "type": "address"
        }
      ],
      "stateMutability": "view",
      "type": "function",
      "constant": true
    },
    {
      "inputs": [
        {
          "internalType": "uint256",
          "name": "_id",
          "type": "uint256"
        },
        {
          "internalType": "bytes32",
          "name": "_name",
          "type": "bytes32"
        },
        {
          "internalType": "bytes32",
          "name": "_nickname",
          "type": "bytes32"
        },
        {
          "internalType": "bytes32",
          "name": "_email",
          "type": "bytes32"
        },
        {
          "internalType": "bytes32",
          "name": "_address",
          "type": "bytes32"
        },
        {
          "internalType": "bytes32",
          "name": "_milk",
          "type": "bytes32"
        }
      ],
      "name": "buyProduct",
      "outputs": [],
      "stateMutability": "payable",
      "type": "function",
      "payable": true
    },
    {
      "inputs": [
        {
          "internalType": "uint256",
          "name": "_id",
          "type": "uint256"
        },
        {
          "internalType": "uint256",
          "name": "_date",
          "type": "uint256"
        }
      ],
      "name": "decidePayProduct",
      "outputs": [],
      "stateMutability": "nonpayable",
      "type": "function"
    },
    {
      "inputs": [
        {
          "internalType": "uint256",
          "name": "_id",
          "type": "uint256"
        },
        {
          "internalType": "uint256",
          "name": "_date",
          "type": "uint256"
        }
      ],
      "name": "doPayProduct",
      "outputs": [],
      "stateMutability": "payable",
      "type": "function",
      "payable": true
    },
    {
      "inputs": [
        {
          "internalType": "uint256",
          "name": "_id",
          "type": "uint256"
        },
        {
          "internalType": "uint256",
          "name": "_date",
          "type": "uint256"
        }
      ],
      "name": "decideCancelProduct",
      "outputs": [],
      "stateMutability": "nonpayable",
      "type": "function"
    },
    {
      "inputs": [
        {
          "internalType": "uint256",
          "name": "_id",
          "type": "uint256"
        },
        {
          "internalType": "uint256",
          "name": "_date",
          "type": "uint256"
        }
      ],
      "name": "doCancelProduct",
      "outputs": [],
      "stateMutability": "payable",
      "type": "function",
      "payable": true
    },
    {
      "inputs": [
        {
          "internalType": "uint256",
          "name": "_id",
          "type": "uint256"
        }
      ],
      "name": "getBuyerInfo",
      "outputs": [
        {
          "internalType": "address",
          "name": "",
          "type": "address"
        },
        {
          "internalType": "bytes32",
          "name": "",
          "type": "bytes32"
        },
        {
          "internalType": "bytes32",
          "name": "",
          "type": "bytes32"
        },
        {
          "internalType": "bytes32",
          "name": "",
          "type": "bytes32"
        },
        {
          "internalType": "bytes32",
          "name": "",
          "type": "bytes32"
        },
        {
          "internalType": "bytes32",
          "name": "",
          "type": "bytes32"
        }
      ],
      "stateMutability": "view",
      "type": "function",
      "constant": true
    },
    {
      "inputs": [],
      "name": "getAllBuyers",
      "outputs": [
        {
          "internalType": "address[10]",
          "name": "",
          "type": "address[10]"
        }
      ],
      "stateMutability": "view",
      "type": "function",
      "constant": true
    },
    {
      "inputs": [
        {
          "internalType": "uint256",
          "name": "_id",
          "type": "uint256"
        }
      ],
      "name": "getSellerInfo",
      "outputs": [
        {
          "internalType": "address",
          "name": "",
          "type": "address"
        },
        {
          "internalType": "bytes32",
          "name": "",
          "type": "bytes32"
        },
        {
          "internalType": "bytes32",
          "name": "",
          "type": "bytes32"
        },
        {
          "internalType": "bytes32",
          "name": "",
          "type": "bytes32"
        },
        {
          "internalType": "bytes32",
          "name": "",
          "type": "bytes32"
        }
      ],
      "stateMutability": "view",
      "type": "function",
      "constant": true
    },
    {
      "inputs": [],
      "name": "getAllSellers",
      "outputs": [
        {
          "internalType": "address[10]",
          "name": "",
          "type": "address[10]"
        }
      ],
      "stateMutability": "view",
      "type": "function",
      "constant": true
    },
    {
      "inputs": [
        {
          "internalType": "uint256",
          "name": "_id",
          "type": "uint256"
        }
      ],
      "name": "getPaymentInfo",
      "outputs": [
        {
          "internalType": "address",
          "name": "",
          "type": "address"
        },
        {
          "internalType": "uint256",
          "name": "",
          "type": "uint256"
        }
      ],
      "stateMutability": "view",
      "type": "function",
      "constant": true
    },
    {
      "inputs": [],
      "name": "getAllPayments",
      "outputs": [
        {
          "internalType": "address[10]",
          "name": "",
          "type": "address[10]"
        }
      ],
      "stateMutability": "view",
      "type": "function",
      "constant": true
    },
    {
      "inputs": [
        {
          "internalType": "uint256",
          "name": "_id",
          "type": "uint256"
        }
      ],
      "name": "getCancelInfo",
      "outputs": [
        {
          "internalType": "address",
          "name": "",
          "type": "address"
        },
        {
          "internalType": "uint256",
          "name": "",
          "type": "uint256"
        }
      ],
      "stateMutability": "view",
      "type": "function",
      "constant": true
    },
    {
      "inputs": [],
      "name": "getAllCancels",
      "outputs": [
        {
          "internalType": "address[10]",
          "name": "",
          "type": "address[10]"
        }
      ],
      "stateMutability": "view",
      "type": "function",
      "constant": true
    },
    {
      "inputs": [
        {
          "internalType": "uint256",
          "name": "_id",
          "type": "uint256"
        }
      ],
      "name": "getdoPaymentInfo",
      "outputs": [
        {
          "internalType": "address",
          "name": "",
          "type": "address"
        },
        {
          "internalType": "uint256",
          "name": "",
          "type": "uint256"
        }
      ],
      "stateMutability": "view",
      "type": "function",
      "constant": true
    },
    {
      "inputs": [],
      "name": "getAlldoPayments",
      "outputs": [
        {
          "internalType": "address[10]",
          "name": "",
          "type": "address[10]"
        }
      ],
      "stateMutability": "view",
      "type": "function",
      "constant": true
    },
    {
      "inputs": [
        {
          "internalType": "uint256",
          "name": "_id",
          "type": "uint256"
        }
      ],
      "name": "getdoCancelInfo",
      "outputs": [
        {
          "internalType": "address",
          "name": "",
          "type": "address"
        },
        {
          "internalType": "uint256",
          "name": "",
          "type": "uint256"
        }
      ],
      "stateMutability": "view",
      "type": "function",
      "constant": true
    },
    {
      "inputs": [],
      "name": "getAlldoCancels",
      "outputs": [
        {
          "internalType": "address[10]",
          "name": "",
          "type": "address[10]"
        }
      ],
      "stateMutability": "view",
      "type": "function",
      "constant": true
    }
  ],
  "bytecode": "0x608060405234801561001057600080fd5b5033600660006101000a81548173ffffffffffffffffffffffffffffffffffffffff021916908373ffffffffffffffffffffffffffffffffffffffff160217905550611ff5806100616000396000f3fe6080604052600436106101cd5760003560e01c80639b269b8f116100f7578063cee26ed511610095578063e814e3cc11610064578063e814e3cc14610726578063efa7571d14610764578063f2aa8218146107a1578063f8defa3c146107de576101cd565b8063cee26ed51461062b578063d810ff0f14610668578063e2330ea6146106a6578063e377e966146106e4576101cd565b8063b4709ede116100d1578063b4709ede14610546578063bff6ea6514610584578063cbc859b4146105c1578063cdd265c3146105ea576101cd565b80639b269b8f146104b3578063a89eae60146104de578063ad30ee121461051b576101cd565b80634e7147c21161016f5780637ef30a7e1161013e5780637ef30a7e146103f55780638042e8e61461043257806386cba22b1461045d5780638da5cb5b14610488576101cd565b80634e7147c21461032157806353ffed031461034c5780635aee87031461037557806369f872de146103b7576101cd565b80632d0f43b0116101ab5780632d0f43b01461026a57806330c4d5241461028657806336b103ad146102a257806348cb67b1146102e0576101cd565b80630d93c604146101d257806313bde4271461021057806322552bc41461024e575b600080fd5b3480156101de57600080fd5b506101f960048036038101906101f49190611b9f565b610809565b604051610207929190611c1c565b60405180910390f35b34801561021c57600080fd5b5061023760048036038101906102329190611b9f565b6108a2565b604051610245929190611c1c565b60405180910390f35b61026860048036038101906102639190611c7b565b61093b565b005b610284600480360381019061027f9190611d08565b610b5b565b005b6102a0600480360381019061029b9190611d08565b610d4b565b005b3480156102ae57600080fd5b506102c960048036038101906102c49190611b9f565b610f3b565b6040516102d7929190611c1c565b60405180910390f35b3480156102ec57600080fd5b5061030760048036038101906103029190611b9f565b610f7f565b604051610318959493929190611d57565b60405180910390f35b34801561032d57600080fd5b50610336610fd5565b6040516103439190611e55565b60405180910390f35b34801561035857600080fd5b50610373600480360381019061036e9190611d08565b611056565b005b34801561038157600080fd5b5061039c60048036038101906103979190611b9f565b6111ca565b6040516103ae96959493929190611e71565b60405180910390f35b3480156103c357600080fd5b506103de60048036038101906103d99190611b9f565b6112b0565b6040516103ec929190611c1c565b60405180910390f35b34801561040157600080fd5b5061041c60048036038101906104179190611b9f565b611349565b6040516104299190611ed2565b60405180910390f35b34801561043e57600080fd5b5061044761137f565b6040516104549190611e55565b60405180910390f35b34801561046957600080fd5b50610472611400565b60405161047f9190611e55565b60405180910390f35b34801561049457600080fd5b5061049d611481565b6040516104aa9190611ed2565b60405180910390f35b3480156104bf57600080fd5b506104c86114a7565b6040516104d59190611e55565b60405180910390f35b3480156104ea57600080fd5b5061050560048036038101906105009190611b9f565b611528565b6040516105129190611ed2565b60405180910390f35b34801561052757600080fd5b5061053061155e565b60405161053d9190611e55565b60405180910390f35b34801561055257600080fd5b5061056d60048036038101906105689190611b9f565b6115df565b60405161057b929190611c1c565b60405180910390f35b34801561059057600080fd5b506105ab60048036038101906105a69190611b9f565b611623565b6040516105b89190611ed2565b60405180910390f35b3480156105cd57600080fd5b506105e860048036038101906105e39190611d08565b611659565b005b3480156105f657600080fd5b50610611600480360381019061060c9190611b9f565b6117cd565b604051610622959493929190611d57565b60405180910390f35b34801561063757600080fd5b50610652600480360381019061064d9190611b9f565b6118a1565b60405161065f9190611ed2565b60405180910390f35b34801561067457600080fd5b5061068f600480360381019061068a9190611b9f565b6118d7565b60405161069d929190611c1c565b60405180910390f35b3480156106b257600080fd5b506106cd60048036038101906106c89190611b9f565b611970565b6040516106db929190611c1c565b60405180910390f35b3480156106f057600080fd5b5061070b60048036038101906107069190611b9f565b6119b4565b60405161071d96959493929190611e71565b60405180910390f35b34801561073257600080fd5b5061074d60048036038101906107489190611b9f565b611a10565b60405161075b929190611c1c565b60405180910390f35b34801561077057600080fd5b5061078b60048036038101906107869190611b9f565b611a54565b6040516107989190611ed2565b60405180910390f35b3480156107ad57600080fd5b506107c860048036038101906107c39190611b9f565b611a8a565b6040516107d59190611ed2565b60405180910390f35b3480156107ea57600080fd5b506107f3611ac0565b6040516108009190611e55565b60405180910390f35b6000806000600460008581526020019081526020016000206040518060400160405290816000820160009054906101000a900473ffffffffffffffffffffffffffffffffffffffff1673ffffffffffffffffffffffffffffffffffffffff1673ffffffffffffffffffffffffffffffffffffffff1681526020016001820154815250509050806000015181602001519250925050915091565b6000806000600360008581526020019081526020016000206040518060400160405290816000820160009054906101000a900473ffffffffffffffffffffffffffffffffffffffff1673ffffffffffffffffffffffffffffffffffffffff1673ffffffffffffffffffffffffffffffffffffffff1681526020016001820154815250509050806000015181602001519250925050915091565b6000861015801561094d575060098611155b61098c576040517f08c379a000000000000000000000000000000000000000000000000000000000815260040161098390611f70565b60405180910390fd5b33600787600a81106109a1576109a0611f90565b5b0160006101000a81548173ffffffffffffffffffffffffffffffffffffffff021916908373ffffffffffffffffffffffffffffffffffffffff1602179055506040518060c001604052803373ffffffffffffffffffffffffffffffffffffffff1681526020018681526020018581526020018481526020018381526020018281525060008088815260200190815260200160002060008201518160000160006101000a81548173ffffffffffffffffffffffffffffffffffffffff021916908373ffffffffffffffffffffffffffffffffffffffff1602179055506020820151816001015560408201518160020155606082015181600301556080820151816004015560a08201518160050155905050600660009054906101000a900473ffffffffffffffffffffffffffffffffffffffff1673ffffffffffffffffffffffffffffffffffffffff166108fc349081150290604051600060405180830381858888f19350505050158015610b19573d6000803e3d6000fd5b507f898aac221e354be15eb61877f81d591e1956daf2d07b79da28acf63aea7f9fd33387604051610b4b929190611c1c565b60405180910390a1505050505050565b60008210158015610b6d575060098211155b610bac576040517f08c379a0000000000000000000000000000000000000000000000000000000008152600401610ba390611f70565b60405180910390fd5b33603983600a8110610bc157610bc0611f90565b5b0160006101000a81548173ffffffffffffffffffffffffffffffffffffffff021916908373ffffffffffffffffffffffffffffffffffffffff16021790555060405180604001604052803373ffffffffffffffffffffffffffffffffffffffff168152602001828152506005600084815260200190815260200160002060008201518160000160006101000a81548173ffffffffffffffffffffffffffffffffffffffff021916908373ffffffffffffffffffffffffffffffffffffffff16021790555060208201518160010155905050600782600a8110610ca657610ca5611f90565b5b0160009054906101000a900473ffffffffffffffffffffffffffffffffffffffff1673ffffffffffffffffffffffffffffffffffffffff166108fc349081150290604051600060405180830381858888f19350505050158015610d0d573d6000803e3d6000fd5b507f9cdfe7e249aa515069029649172a6a944ca8bfd40df07e334f8495f4e5ca47c53383604051610d3f929190611c1c565b60405180910390a15050565b60008210158015610d5d575060098211155b610d9c576040517f08c379a0000000000000000000000000000000000000000000000000000000008152600401610d9390611f70565b60405180910390fd5b33602f83600a8110610db157610db0611f90565b5b0160006101000a81548173ffffffffffffffffffffffffffffffffffffffff021916908373ffffffffffffffffffffffffffffffffffffffff16021790555060405180604001604052803373ffffffffffffffffffffffffffffffffffffffff168152602001828152506004600084815260200190815260200160002060008201518160000160006101000a81548173ffffffffffffffffffffffffffffffffffffffff021916908373ffffffffffffffffffffffffffffffffffffffff16021790555060208201518160010155905050601182600a8110610e9657610e95611f90565b5b0160009054906101000a900473ffffffffffffffffffffffffffffffffffffffff1673ffffffffffffffffffffffffffffffffffffffff166108fc349081150290604051600060405180830381858888f19350505050158015610efd573d6000803e3d6000fd5b507fb818b8a40d821336113c0e6e492eff947d5792115866587815a6f9958b8bc28b3383604051610f2f929190611c1c565b60405180910390a15050565b60056020528060005260406000206000915090508060000160009054906101000a900473ffffffffffffffffffffffffffffffffffffffff16908060010154905082565b60016020528060005260406000206000915090508060000160009054906101000a900473ffffffffffffffffffffffffffffffffffffffff16908060010154908060020154908060030154908060040154905085565b610fdd611b41565b6025600a806020026040519081016040528092919082600a801561104c576020028201915b8160009054906101000a900473ffffffffffffffffffffffffffffffffffffffff1673ffffffffffffffffffffffffffffffffffffffff1681526020019060010190808311611002575b5050505050905090565b60008210158015611068575060098211155b6110a7576040517f08c379a000000000000000000000000000000000000000000000000000000000815260040161109e90611f70565b60405180910390fd5b33602583600a81106110bc576110bb611f90565b5b0160006101000a81548173ffffffffffffffffffffffffffffffffffffffff021916908373ffffffffffffffffffffffffffffffffffffffff16021790555060405180604001604052803373ffffffffffffffffffffffffffffffffffffffff168152602001828152506003600084815260200190815260200160002060008201518160000160006101000a81548173ffffffffffffffffffffffffffffffffffffffff021916908373ffffffffffffffffffffffffffffffffffffffff160217905550602082015181600101559050507f09525ebf9fdb953093a3754e1ac6f8d66e30ab00043a37c18b57de5397d048b633836040516111be929190611c1c565b60405180910390a15050565b60008060008060008060008060008981526020019081526020016000206040518060c00160405290816000820160009054906101000a900473ffffffffffffffffffffffffffffffffffffffff1673ffffffffffffffffffffffffffffffffffffffff1673ffffffffffffffffffffffffffffffffffffffff168152602001600182015481526020016002820154815260200160038201548152602001600482015481526020016005820154815250509050806000015181602001518260400151836060015184608001518560a001519650965096509650965096505091939550919395565b6000806000600560008581526020019081526020016000206040518060400160405290816000820160009054906101000a900473ffffffffffffffffffffffffffffffffffffffff1673ffffffffffffffffffffffffffffffffffffffff1673ffffffffffffffffffffffffffffffffffffffff1681526020016001820154815250509050806000015181602001519250925050915091565b603981600a811061135957600080fd5b016000915054906101000a900473ffffffffffffffffffffffffffffffffffffffff1681565b611387611b41565b6039600a806020026040519081016040528092919082600a80156113f6576020028201915b8160009054906101000a900473ffffffffffffffffffffffffffffffffffffffff1673ffffffffffffffffffffffffffffffffffffffff16815260200190600101908083116113ac575b5050505050905090565b611408611b41565b6007600a806020026040519081016040528092919082600a8015611477576020028201915b8160009054906101000a900473ffffffffffffffffffffffffffffffffffffffff1673ffffffffffffffffffffffffffffffffffffffff168152602001906001019080831161142d575b5050505050905090565b600660009054906101000a900473ffffffffffffffffffffffffffffffffffffffff1681565b6114af611b41565b6011600a806020026040519081016040528092919082600a801561151e576020028201915b8160009054906101000a900473ffffffffffffffffffffffffffffffffffffffff1673ffffffffffffffffffffffffffffffffffffffff16815260200190600101908083116114d4575b5050505050905090565b602581600a811061153857600080fd5b016000915054906101000a900473ffffffffffffffffffffffffffffffffffffffff1681565b611566611b41565b602f600a806020026040519081016040528092919082600a80156115d5576020028201915b8160009054906101000a900473ffffffffffffffffffffffffffffffffffffffff1673ffffffffffffffffffffffffffffffffffffffff168152602001906001019080831161158b575b5050505050905090565b60026020528060005260406000206000915090508060000160009054906101000a900473ffffffffffffffffffffffffffffffffffffffff16908060010154905082565b602f81600a811061163357600080fd5b016000915054906101000a900473ffffffffffffffffffffffffffffffffffffffff1681565b6000821015801561166b575060098211155b6116aa576040517f08c379a00000000000000000000000000000000000000000000000000000000081526004016116a190611f70565b60405180910390fd5b33601b83600a81106116bf576116be611f90565b5b0160006101000a81548173ffffffffffffffffffffffffffffffffffffffff021916908373ffffffffffffffffffffffffffffffffffffffff16021790555060405180604001604052803373ffffffffffffffffffffffffffffffffffffffff168152602001828152506002600084815260200190815260200160002060008201518160000160006101000a81548173ffffffffffffffffffffffffffffffffffffffff021916908373ffffffffffffffffffffffffffffffffffffffff160217905550602082015181600101559050507f61638e3097b7583a60bac0b695454a1a30e5a59ce425d6d3c1586cf2b61c25a433836040516117c1929190611c1c565b60405180910390a15050565b600080600080600080600160008881526020019081526020016000206040518060a00160405290816000820160009054906101000a900473ffffffffffffffffffffffffffffffffffffffff1673ffffffffffffffffffffffffffffffffffffffff1673ffffffffffffffffffffffffffffffffffffffff168152602001600182015481526020016002820154815260200160038201548152602001600482015481525050905080600001518160200151826040015183606001518460800151955095509550955095505091939590929450565b601181600a81106118b157600080fd5b016000915054906101000a900473ffffffffffffffffffffffffffffffffffffffff1681565b6000806000600260008581526020019081526020016000206040518060400160405290816000820160009054906101000a900473ffffffffffffffffffffffffffffffffffffffff1673ffffffffffffffffffffffffffffffffffffffff1673ffffffffffffffffffffffffffffffffffffffff1681526020016001820154815250509050806000015181602001519250925050915091565b60036020528060005260406000206000915090508060000160009054906101000a900473ffffffffffffffffffffffffffffffffffffffff16908060010154905082565b60006020528060005260406000206000915090508060000160009054906101000a900473ffffffffffffffffffffffffffffffffffffffff16908060010154908060020154908060030154908060040154908060050154905086565b60046020528060005260406000206000915090508060000160009054906101000a900473ffffffffffffffffffffffffffffffffffffffff16908060010154905082565b601b81600a8110611a6457600080fd5b016000915054906101000a900473ffffffffffffffffffffffffffffffffffffffff1681565b600781600a8110611a9a57600080fd5b016000915054906101000a900473ffffffffffffffffffffffffffffffffffffffff1681565b611ac8611b41565b601b600a806020026040519081016040528092919082600a8015611b37576020028201915b8160009054906101000a900473ffffffffffffffffffffffffffffffffffffffff1673ffffffffffffffffffffffffffffffffffffffff1681526020019060010190808311611aed575b5050505050905090565b604051806101400160405280600a90602082028036833780820191505090505090565b600080fd5b6000819050919050565b611b7c81611b69565b8114611b8757600080fd5b50565b600081359050611b9981611b73565b92915050565b600060208284031215611bb557611bb4611b64565b5b6000611bc384828501611b8a565b91505092915050565b600073ffffffffffffffffffffffffffffffffffffffff82169050919050565b6000611bf782611bcc565b9050919050565b611c0781611bec565b82525050565b611c1681611b69565b82525050565b6000604082019050611c316000830185611bfe565b611c3e6020830184611c0d565b9392505050565b6000819050919050565b611c5881611c45565b8114611c6357600080fd5b50565b600081359050611c7581611c4f565b92915050565b60008060008060008060c08789031215611c9857611c97611b64565b5b6000611ca689828a01611b8a565b9650506020611cb789828a01611c66565b9550506040611cc889828a01611c66565b9450506060611cd989828a01611c66565b9350506080611cea89828a01611c66565b92505060a0611cfb89828a01611c66565b9150509295509295509295565b60008060408385031215611d1f57611d1e611b64565b5b6000611d2d85828601611b8a565b9250506020611d3e85828601611b8a565b9150509250929050565b611d5181611c45565b82525050565b600060a082019050611d6c6000830188611bfe565b611d796020830187611d48565b611d866040830186611d48565b611d936060830185611d48565b611da06080830184611d48565b9695505050505050565b6000600a9050919050565b600081905092915050565b6000819050919050565b611dd381611bec565b82525050565b6000611de58383611dca565b60208301905092915050565b6000602082019050919050565b611e0781611daa565b611e118184611db5565b9250611e1c82611dc0565b8060005b83811015611e4d578151611e348782611dd9565b9650611e3f83611df1565b925050600181019050611e20565b505050505050565b600061014082019050611e6b6000830184611dfe565b92915050565b600060c082019050611e866000830189611bfe565b611e936020830188611d48565b611ea06040830187611d48565b611ead6060830186611d48565b611eba6080830185611d48565b611ec760a0830184611d48565b979650505050505050565b6000602082019050611ee76000830184611bfe565b92915050565b600082825260208201905092915050565b7f74686520696e7075742073686f756420626520696e636c7564656420696e207460008201527f6865205f696427732072616e6765730000000000000000000000000000000000602082015250565b6000611f5a602f83611eed565b9150611f6582611efe565b604082019050919050565b60006020820190508181036000830152611f8981611f4d565b9050919050565b7f4e487b7100000000000000000000000000000000000000000000000000000000600052603260045260246000fdfea264697066735822122054eb5b93311cb1f975fb9518941251d4b2e49a5d0ab4e5e03f3d9299f2b9d6d164736f6c634300080c0033",
  "immutableReferences": {},
  "source": "// SPDX-License-Identifier: GPL-3.0\r\n\r\npragma solidity ^0.8.12;\r\n\r\ncontract Milk {\r\n    //  \r\n    struct Buyer {\r\n        address buyerAddress;\r\n        bytes32 user_name;\r\n        bytes32 user_nickname;\r\n        bytes32 user_email;\r\n        bytes32 user_address;\r\n        bytes32 user_milk;\r\n    }\r\n\r\n    //  \r\n    struct Seller {\r\n        address sellerAddress;\r\n        bytes32 user_name;\r\n        bytes32 user_nickname;\r\n        bytes32 user_email;\r\n        bytes32 user_address;\r\n    }\r\n\r\n    //  \r\n    struct Payment {\r\n        address buyerAddress;\r\n        uint date;\r\n    }\r\n\r\n    //  \r\n    struct Cancel {\r\n        address buyerAddress;\r\n        uint date;\r\n    }\r\n\r\n    //  \r\n    struct doPay {\r\n        address managerAddress;\r\n        uint date;\r\n    }\r\n\r\n    struct doCancel {\r\n        address managerAddress;\r\n        uint date;\r\n    }\r\n\r\n    mapping (uint => Buyer) public buyerInfo;\r\n    mapping (uint => Seller) public sellerInfo;\r\n    mapping (uint => Payment) public decidePaymentInfo;\r\n    mapping (uint => Cancel) public decideCancelInfo;\r\n    mapping (uint => doPay) public doPaymentInfo;\r\n    mapping (uint => doCancel) public doCancelInfo;\r\n\r\n    address public owner; //   \r\n    address[10] public buyers; //  \r\n    address[10] public sellers; //  \r\n    address[10] public decidePayments; //  \r\n    address[10] public decideCancels; //   \r\n    address[10] public doPayments; //  \r\n    address[10] public doCancels; //  \r\n\r\n    // event  emit \r\n    event LogBuyProduct(address _buyer, uint _id);  //   \r\n    event LogDecidePayment(address _buyer, uint _id); //   \r\n    event LogDecideCancel(address _buyer, uint _id); //   \r\n    event LogPaymentProduct(address _manager, uint _id); //   \r\n    event LogCancelProduct(address _manager, uint _id); //   \r\n    \r\n    constructor() {\r\n        owner = msg.sender;\r\n    }\r\n// ,    \r\n    // , , , , ,  \r\n    function buyProduct(uint _id, bytes32 _name, bytes32 _nickname, bytes32 _email, bytes32 _address, bytes32 _milk) public payable {\r\n        require(_id >= 0 && _id <= 9, \"the input shoud be included in the _id's ranges\");\r\n        buyers[_id] = msg.sender; //     ,  id  \r\n        buyerInfo[_id] = Buyer(msg.sender, _name, _nickname, _email, _address, _milk); //  \r\n\r\n        payable(address(uint160(owner))).transfer(msg.value); //  \r\n        // address(uint160(owner)).transfer(msg.value); //   msg.value   \r\n        emit LogBuyProduct(msg.sender, _id);\r\n    }\r\n\r\n\r\n    //\r\n    function decidePayProduct(uint _id, uint _date) public {\r\n        require(_id >= 0 && _id <= 9, \"the input shoud be included in the _id's ranges\");\r\n        decidePayments[_id] = msg.sender;\r\n        decidePaymentInfo[_id] = Payment(msg.sender, _date);\r\n        //require(msg.sender == address(this), \"to tranfer et   her from contract to address\");\r\n        emit LogDecidePayment(msg.sender, _id);\r\n    }\r\n\r\n    //\r\n    function doPayProduct(uint _id, uint _date) public payable {\r\n        require(_id >= 0 && _id <= 9, \"the input shoud be included in the _id's ranges\");\r\n        doPayments[_id] = msg.sender;\r\n        doPaymentInfo[_id] = doPay(msg.sender, _date);\r\n        payable(address(uint160(sellers[_id]))).transfer(msg.value);\r\n        emit LogPaymentProduct(msg.sender, _id);\r\n    }\r\n\r\n    //\r\n    function decideCancelProduct(uint _id, uint _date) public {\r\n        require(_id >= 0 && _id <= 9, \"the input shoud be included in the _id's ranges\");\r\n        decideCancels[_id] = msg.sender;\r\n        decideCancelInfo[_id] = Cancel(msg.sender, _date);\r\n        emit LogDecideCancel(msg.sender, _id);\r\n    }\r\n\r\n    //\r\n    function doCancelProduct(uint _id, uint _date) public payable {\r\n        require(_id >= 0 && _id <= 9, \"the input shoud be included in the _id's ranges\");\r\n        doCancels[_id] = msg.sender;\r\n        doCancelInfo[_id] = doCancel(msg.sender, _date);\r\n        payable(address(uint160(buyers[_id]))).transfer(msg.value);\r\n        emit LogCancelProduct(msg.sender, _id);\r\n    }\r\n\r\n    // \r\n    function getBuyerInfo(uint _id) public view returns (address, bytes32, bytes32, bytes32, bytes32, bytes32) {\r\n        Buyer memory buyer = buyerInfo[_id];\r\n        return (buyer.buyerAddress, buyer.user_name, buyer.user_nickname, buyer.user_email, buyer.user_address, buyer.user_milk);\r\n    }\r\n\r\n    //  \r\n    function getAllBuyers() public view returns (address[10] memory) {\r\n        return buyers;\r\n    }\r\n\r\n    // \r\n    function getSellerInfo(uint _id) public view returns (address, bytes32, bytes32, bytes32, bytes32) {\r\n        Seller memory seller = sellerInfo[_id];\r\n        return (seller.sellerAddress, seller.user_name, seller.user_nickname, seller.user_email, seller.user_address);\r\n    }\r\n\r\n    //  \r\n    function getAllSellers() public view returns (address[10] memory) {\r\n        return sellers;\r\n    }\r\n\r\n    // \r\n    function getPaymentInfo(uint _id) public view returns (address, uint) {\r\n        Payment memory payment = decidePaymentInfo[_id];\r\n        return (payment.buyerAddress, payment.date);\r\n    }\r\n\r\n    //  \r\n    function getAllPayments() public view returns (address[10] memory) {\r\n        return decidePayments;\r\n    }\r\n\r\n    // \r\n    function getCancelInfo(uint _id) public view returns (address, uint) {\r\n        Cancel memory cancel = decideCancelInfo[_id];\r\n        return (cancel.buyerAddress, cancel.date);\r\n    }\r\n\r\n    //  \r\n    function getAllCancels() public view returns (address[10] memory) {\r\n        return decideCancels;\r\n    }\r\n\r\n    //\r\n    function getdoPaymentInfo(uint _id) public view returns (address, uint) {\r\n        doPay memory dopay = doPaymentInfo[_id];\r\n        return (dopay.managerAddress, dopay.date);\r\n    }\r\n\r\n    //  \r\n    function getAlldoPayments() public view returns (address[10] memory) {\r\n        return doPayments;\r\n    }\r\n\r\n    //\r\n    function getdoCancelInfo(uint _id) public view returns (address, uint) {\r\n        doCancel memory docancel = doCancelInfo[_id];\r\n        return (docancel.managerAddress, docancel.date);\r\n    }\r\n\r\n    //  \r\n    function getAlldoCancels() public view returns (address[10] memory) {\r\n        return doCancels;\r\n    }\r\n\r\n}",
  "sourcePath": "C:\\Users\\SSAFY\\Desktop\\Project\\\\project\\S06P22A504\\smart-contract\\contracts\\Milk.sol",
  "compiler": {
    "name": "solc",
    "version": "0.8.12+commit.f00d7308.Emscripten.clang"
  },
  "schemaVersion": "3.4.6",
  "updatedAt": "2022-04-08T02:06:34.862Z",
  "networkType": "ethereum",
  "devdoc": {
    "kind": "dev",
    "methods": {},
    "version": 1
  },
  "userdoc": {
    "kind": "user",
    "methods": {},
    "version": 1
  }
}