{
  "contractName": "Milk",
  "abi": [
    {
      "inputs": [
        {
          "internalType": "uint256",
          "name": "",
          "type": "uint256"
        }
      ],
      "name": "buyerInfo",
      "outputs": [
        {
          "internalType": "address",
          "name": "buyerAddress",
          "type": "address"
        },
        {
          "internalType": "bytes32",
          "name": "user_name",
          "type": "bytes32"
        },
        {
          "internalType": "bytes32",
          "name": "user_nickname",
          "type": "bytes32"
        },
        {
          "internalType": "bytes32",
          "name": "user_email",
          "type": "bytes32"
        },
        {
          "internalType": "bytes32",
          "name": "user_address",
          "type": "bytes32"
        },
        {
          "internalType": "bytes32",
          "name": "user_milk",
          "type": "bytes32"
        }
      ],
      "stateMutability": "view",
      "type": "function"
    },
    {
      "inputs": [
        {
          "internalType": "uint256",
          "name": "",
          "type": "uint256"
        }
      ],
      "name": "buyers",
      "outputs": [
        {
          "internalType": "address",
          "name": "",
          "type": "address"
        }
      ],
      "stateMutability": "view",
      "type": "function"
    },
    {
      "inputs": [
        {
          "internalType": "uint256",
          "name": "",
          "type": "uint256"
        }
      ],
      "name": "decideCancelInfo",
      "outputs": [
        {
          "internalType": "address",
          "name": "buyerAddress",
          "type": "address"
        },
        {
          "internalType": "uint256",
          "name": "date",
          "type": "uint256"
        }
      ],
      "stateMutability": "view",
      "type": "function"
    },
    {
      "inputs": [
        {
          "internalType": "uint256",
          "name": "",
          "type": "uint256"
        }
      ],
      "name": "decideCancels",
      "outputs": [
        {
          "internalType": "address",
          "name": "",
          "type": "address"
        }
      ],
      "stateMutability": "view",
      "type": "function"
    },
    {
      "inputs": [
        {
          "internalType": "uint256",
          "name": "",
          "type": "uint256"
        }
      ],
      "name": "decidePaymentInfo",
      "outputs": [
        {
          "internalType": "address",
          "name": "buyerAddress",
          "type": "address"
        },
        {
          "internalType": "uint256",
          "name": "date",
          "type": "uint256"
        }
      ],
      "stateMutability": "view",
      "type": "function"
    },
    {
      "inputs": [
        {
          "internalType": "uint256",
          "name": "",
          "type": "uint256"
        }
      ],
      "name": "decidePayments",
      "outputs": [
        {
          "internalType": "address",
          "name": "",
          "type": "address"
        }
      ],
      "stateMutability": "view",
      "type": "function"
    },
    {
      "inputs": [
        {
          "internalType": "uint256",
          "name": "",
          "type": "uint256"
        }
      ],
      "name": "doCancelInfo",
      "outputs": [
        {
          "internalType": "address",
          "name": "managerAddress",
          "type": "address"
        },
        {
          "internalType": "uint256",
          "name": "date",
          "type": "uint256"
        }
      ],
      "stateMutability": "view",
      "type": "function"
    },
    {
      "inputs": [
        {
          "internalType": "uint256",
          "name": "",
          "type": "uint256"
        }
      ],
      "name": "doCancels",
      "outputs": [
        {
          "internalType": "address",
          "name": "",
          "type": "address"
        }
      ],
      "stateMutability": "view",
      "type": "function"
    },
    {
      "inputs": [
        {
          "internalType": "uint256",
          "name": "",
          "type": "uint256"
        }
      ],
      "name": "doPaymentInfo",
      "outputs": [
        {
          "internalType": "address",
          "name": "managerAddress",
          "type": "address"
        },
        {
          "internalType": "uint256",
          "name": "date",
          "type": "uint256"
        }
      ],
      "stateMutability": "view",
      "type": "function"
    },
    {
      "inputs": [
        {
          "internalType": "uint256",
          "name": "",
          "type": "uint256"
        }
      ],
      "name": "doPayments",
      "outputs": [
        {
          "internalType": "address",
          "name": "",
          "type": "address"
        }
      ],
      "stateMutability": "view",
      "type": "function"
    },
    {
      "inputs": [],
      "name": "owner",
      "outputs": [
        {
          "internalType": "address",
          "name": "",
          "type": "address"
        }
      ],
      "stateMutability": "view",
      "type": "function"
    },
    {
      "inputs": [
        {
          "internalType": "uint256",
          "name": "",
          "type": "uint256"
        }
      ],
      "name": "sellerInfo",
      "outputs": [
        {
          "internalType": "address",
          "name": "sellerAddress",
          "type": "address"
        },
        {
          "internalType": "bytes32",
          "name": "user_name",
          "type": "bytes32"
        },
        {
          "internalType": "bytes32",
          "name": "user_nickname",
          "type": "bytes32"
        },
        {
          "internalType": "bytes32",
          "name": "user_email",
          "type": "bytes32"
        },
        {
          "internalType": "bytes32",
          "name": "user_address",
          "type": "bytes32"
        }
      ],
      "stateMutability": "view",
      "type": "function"
    },
    {
      "inputs": [
        {
          "internalType": "uint256",
          "name": "",
          "type": "uint256"
        }
      ],
      "name": "sellers",
      "outputs": [
        {
          "internalType": "address",
          "name": "",
          "type": "address"
        }
      ],
      "stateMutability": "view",
      "type": "function"
    }
  ],
  "bytecode": "0x608060405234801561001057600080fd5b5061086a806100206000396000f3fe608060405234801561001057600080fd5b50600436106100cf5760003560e01c8063bff6ea651161008c578063e377e96611610066578063e377e96614610279578063e814e3cc146102ae578063efa7571d146102df578063f2aa82181461030f576100cf565b8063bff6ea65146101e8578063cee26ed514610218578063e2330ea614610248576100cf565b806336b103ad146100d457806348cb67b1146101055780637ef30a7e146101395780638da5cb5b14610169578063a89eae6014610187578063b4709ede146101b7575b600080fd5b6100ee60048036038101906100e991906106a6565b61033f565b6040516100fc929190610723565b60405180910390f35b61011f600480360381019061011a91906106a6565b610383565b604051610130959493929190610765565b60405180910390f35b610153600480360381019061014e91906106a6565b6103d9565b60405161016091906107b8565b60405180910390f35b61017161040f565b60405161017e91906107b8565b60405180910390f35b6101a1600480360381019061019c91906106a6565b610435565b6040516101ae91906107b8565b60405180910390f35b6101d160048036038101906101cc91906106a6565b61046b565b6040516101df929190610723565b60405180910390f35b61020260048036038101906101fd91906106a6565b6104af565b60405161020f91906107b8565b60405180910390f35b610232600480360381019061022d91906106a6565b6104e5565b60405161023f91906107b8565b60405180910390f35b610262600480360381019061025d91906106a6565b61051b565b604051610270929190610723565b60405180910390f35b610293600480360381019061028e91906106a6565b61055f565b6040516102a5969594939291906107d3565b60405180910390f35b6102c860048036038101906102c391906106a6565b6105bb565b6040516102d6929190610723565b60405180910390f35b6102f960048036038101906102f491906106a6565b6105ff565b60405161030691906107b8565b60405180910390f35b610329600480360381019061032491906106a6565b610635565b60405161033691906107b8565b60405180910390f35b60056020528060005260406000206000915090508060000160009054906101000a900473ffffffffffffffffffffffffffffffffffffffff16908060010154905082565b60016020528060005260406000206000915090508060000160009054906101000a900473ffffffffffffffffffffffffffffffffffffffff16908060010154908060020154908060030154908060040154905085565b603981600a81106103e957600080fd5b016000915054906101000a900473ffffffffffffffffffffffffffffffffffffffff1681565b600660009054906101000a900473ffffffffffffffffffffffffffffffffffffffff1681565b602581600a811061044557600080fd5b016000915054906101000a900473ffffffffffffffffffffffffffffffffffffffff1681565b60026020528060005260406000206000915090508060000160009054906101000a900473ffffffffffffffffffffffffffffffffffffffff16908060010154905082565b602f81600a81106104bf57600080fd5b016000915054906101000a900473ffffffffffffffffffffffffffffffffffffffff1681565b601181600a81106104f557600080fd5b016000915054906101000a900473ffffffffffffffffffffffffffffffffffffffff1681565b60036020528060005260406000206000915090508060000160009054906101000a900473ffffffffffffffffffffffffffffffffffffffff16908060010154905082565b60006020528060005260406000206000915090508060000160009054906101000a900473ffffffffffffffffffffffffffffffffffffffff16908060010154908060020154908060030154908060040154908060050154905086565b60046020528060005260406000206000915090508060000160009054906101000a900473ffffffffffffffffffffffffffffffffffffffff16908060010154905082565b601b81600a811061060f57600080fd5b016000915054906101000a900473ffffffffffffffffffffffffffffffffffffffff1681565b600781600a811061064557600080fd5b016000915054906101000a900473ffffffffffffffffffffffffffffffffffffffff1681565b600080fd5b6000819050919050565b61068381610670565b811461068e57600080fd5b50565b6000813590506106a08161067a565b92915050565b6000602082840312156106bc576106bb61066b565b5b60006106ca84828501610691565b91505092915050565b600073ffffffffffffffffffffffffffffffffffffffff82169050919050565b60006106fe826106d3565b9050919050565b61070e816106f3565b82525050565b61071d81610670565b82525050565b60006040820190506107386000830185610705565b6107456020830184610714565b9392505050565b6000819050919050565b61075f8161074c565b82525050565b600060a08201905061077a6000830188610705565b6107876020830187610756565b6107946040830186610756565b6107a16060830185610756565b6107ae6080830184610756565b9695505050505050565b60006020820190506107cd6000830184610705565b92915050565b600060c0820190506107e86000830189610705565b6107f56020830188610756565b6108026040830187610756565b61080f6060830186610756565b61081c6080830185610756565b61082960a0830184610756565b97965050505050505056fea2646970667358221220fea0bc4fe94d151f9879f3c1e536e152f510d7399ddce1afbbae8878f973e45e64736f6c634300080c0033",
  "immutableReferences": {},
  "source": "// SPDX-License-Identifier: GPL-3.0\r\n\r\npragma solidity ^0.8.12;\r\n\r\ncontract Milk {\r\n    //  \r\n    struct Buyer {\r\n        address buyerAddress;\r\n        bytes32 user_name;\r\n        bytes32 user_nickname;\r\n        bytes32 user_email;\r\n        bytes32 user_address;\r\n        bytes32 user_milk;\r\n    }\r\n\r\n    //  \r\n    struct Seller {\r\n        address sellerAddress;\r\n        bytes32 user_name;\r\n        bytes32 user_nickname;\r\n        bytes32 user_email;\r\n        bytes32 user_address;\r\n    }\r\n\r\n    //  \r\n    struct Payment {\r\n        address buyerAddress;\r\n        uint date;\r\n    }\r\n\r\n    //  \r\n    struct Cancel {\r\n        address buyerAddress;\r\n        uint date;\r\n    }\r\n\r\n    //  \r\n    struct doPay {\r\n        address managerAddress;\r\n        uint date;\r\n    }\r\n\r\n    struct doCancel {\r\n        address managerAddress;\r\n        uint date;\r\n    }\r\n\r\n    mapping (uint => Buyer) public buyerInfo;\r\n    mapping (uint => Seller) public sellerInfo;\r\n    mapping (uint => Payment) public decidePaymentInfo;\r\n    mapping (uint => Cancel) public decideCancelInfo;\r\n    mapping (uint => doPay) public doPaymentInfo;\r\n    mapping (uint => doCancel) public doCancelInfo;\r\n\r\n    address public owner; //   \r\n    address[10] public buyers; //  \r\n    address[10] public sellers; //  \r\n    address[10] public decidePayments; //  \r\n    address[10] public decideCancels; //   \r\n    address[10] public doPayments; //  \r\n    address[10] public doCancels; //  \r\n\r\n    \r\n\r\n}",
  "sourcePath": "C:\\Users\\SSAFY\\Desktop\\Project\\\\project\\S06P22A504\\smart-contract\\contracts\\Milk.sol",
  "compiler": {
    "name": "solc",
    "version": "0.8.12+commit.f00d7308.Emscripten.clang"
  },
  "schemaVersion": "3.4.6",
  "updatedAt": "2022-03-25T04:53:36.837Z",
  "devdoc": {
    "kind": "dev",
    "methods": {},
    "version": 1
  },
  "userdoc": {
    "kind": "user",
    "methods": {},
    "version": 1
  }
}